{
  "contractName": "Investment",
  "abi": [
    {
      "inputs": [],
      "payable": false,
      "stateMutability": "nonpayable",
      "type": "constructor"
    },
    {
      "anonymous": false,
      "inputs": [
        {
          "indexed": false,
          "internalType": "address payable",
          "name": "from",
          "type": "address"
        },
        {
          "indexed": false,
          "internalType": "address payable",
          "name": "to",
          "type": "address"
        },
        {
          "indexed": false,
          "internalType": "uint256",
          "name": "value",
          "type": "uint256"
        }
      ],
      "name": "TransactionOccured",
      "type": "event"
    },
    {
      "constant": true,
      "inputs": [],
      "name": "getCompanies",
      "outputs": [
        {
          "internalType": "address[]",
          "name": "",
          "type": "address[]"
        },
        {
          "internalType": "bytes32[]",
          "name": "",
          "type": "bytes32[]"
        }
      ],
      "payable": false,
      "stateMutability": "view",
      "type": "function"
    },
    {
      "constant": true,
      "inputs": [
        {
          "internalType": "address",
          "name": "owner",
          "type": "address"
        }
      ],
      "name": "getPapers",
      "outputs": [
        {
          "internalType": "uint256[]",
          "name": "",
          "type": "uint256[]"
        },
        {
          "internalType": "address[]",
          "name": "",
          "type": "address[]"
        },
        {
          "internalType": "address[]",
          "name": "",
          "type": "address[]"
        },
        {
          "internalType": "uint256[]",
          "name": "",
          "type": "uint256[]"
        }
      ],
      "payable": false,
      "stateMutability": "view",
      "type": "function"
    },
    {
      "constant": false,
      "inputs": [
        {
          "internalType": "uint256",
          "name": "paperId",
          "type": "uint256"
        }
      ],
      "name": "buy",
      "outputs": [],
      "payable": true,
      "stateMutability": "payable",
      "type": "function"
    }
  ],
  "bytecode": "0x60806040523480156200001157600080fd5b50620000226200002860201b60201c565b62001875565b600073f661b71bec9a6daac0bd5e897c3d242df18edc11905060007394fb29447e4b8fba43e90ea46a2f51c2191f4fea905060007321a4a0d1499a20d503969190c5d98e4ab51ca4c49050600060405180604001604052807f4170706c6500000000000000000000000000000000000000000000000000000081526020018573ffffffffffffffffffffffffffffffffffffffff16815250908060018154018082558091505090600182039060005260206000209060020201600090919290919091506000820151816000015560208201518160010160006101000a81548173ffffffffffffffffffffffffffffffffffffffff021916908373ffffffffffffffffffffffffffffffffffffffff160217905550505050600060405180604001604052807f476f6f676c65000000000000000000000000000000000000000000000000000081526020018473ffffffffffffffffffffffffffffffffffffffff16815250908060018154018082558091505090600182039060005260206000209060020201600090919290919091506000820151816000015560208201518160010160006101000a81548173ffffffffffffffffffffffffffffffffffffffff021916908373ffffffffffffffffffffffffffffffffffffffff160217905550505050600060405180604001604052807f46616365626f6f6b00000000000000000000000000000000000000000000000081526020018373ffffffffffffffffffffffffffffffffffffffff16815250908060018154018082558091505090600182039060005260206000209060020201600090919290919091506000820151816000015560208201518160010160006101000a81548173ffffffffffffffffffffffffffffffffffffffff021916908373ffffffffffffffffffffffffffffffffffffffff160217905550505050620002e16200180e565b6040518060a00160405280600181526020018573ffffffffffffffffffffffffffffffffffffffff1681526020018573ffffffffffffffffffffffffffffffffffffffff168152602001600060028111156200033957fe5b815260200160c88152509050600260008573ffffffffffffffffffffffffffffffffffffffff1673ffffffffffffffffffffffffffffffffffffffff16815260200190815260200160002081908060018154018082558091505090600182039060005260206000209060040201600090919290919091506000820151816000015560208201518160010160006101000a81548173ffffffffffffffffffffffffffffffffffffffff021916908373ffffffffffffffffffffffffffffffffffffffff16021790555060408201518160020160006101000a81548173ffffffffffffffffffffffffffffffffffffffff021916908373ffffffffffffffffffffffffffffffffffffffff16021790555060608201518160020160146101000a81548160ff021916908360028111156200046d57fe5b021790555060808201518160030155505050600181908060018154018082558091505090600182039060005260206000209060040201600090919290919091506000820151816000015560208201518160010160006101000a81548173ffffffffffffffffffffffffffffffffffffffff021916908373ffffffffffffffffffffffffffffffffffffffff16021790555060408201518160020160006101000a81548173ffffffffffffffffffffffffffffffffffffffff021916908373ffffffffffffffffffffffffffffffffffffffff16021790555060608201518160020160146101000a81548160ff021916908360028111156200056a57fe5b021790555060808201518160030155505050620005866200180e565b6040518060a00160405280600281526020018673ffffffffffffffffffffffffffffffffffffffff1681526020018573ffffffffffffffffffffffffffffffffffffffff16815260200160016002811115620005de57fe5b8152602001603c8152509050600260008673ffffffffffffffffffffffffffffffffffffffff1673ffffffffffffffffffffffffffffffffffffffff16815260200190815260200160002081908060018154018082558091505090600182039060005260206000209060040201600090919290919091506000820151816000015560208201518160010160006101000a81548173ffffffffffffffffffffffffffffffffffffffff021916908373ffffffffffffffffffffffffffffffffffffffff16021790555060408201518160020160006101000a81548173ffffffffffffffffffffffffffffffffffffffff021916908373ffffffffffffffffffffffffffffffffffffffff16021790555060608201518160020160146101000a81548160ff021916908360028111156200071257fe5b021790555060808201518160030155505050600181908060018154018082558091505090600182039060005260206000209060040201600090919290919091506000820151816000015560208201518160010160006101000a81548173ffffffffffffffffffffffffffffffffffffffff021916908373ffffffffffffffffffffffffffffffffffffffff16021790555060408201518160020160006101000a81548173ffffffffffffffffffffffffffffffffffffffff021916908373ffffffffffffffffffffffffffffffffffffffff16021790555060608201518160020160146101000a81548160ff021916908360028111156200080f57fe5b0217905550608082015181600301555050506200082b6200180e565b6040518060a00160405280600381526020018673ffffffffffffffffffffffffffffffffffffffff1681526020018773ffffffffffffffffffffffffffffffffffffffff168152602001600160028111156200088357fe5b815260200160968152509050600260008673ffffffffffffffffffffffffffffffffffffffff1673ffffffffffffffffffffffffffffffffffffffff16815260200190815260200160002081908060018154018082558091505090600182039060005260206000209060040201600090919290919091506000820151816000015560208201518160010160006101000a81548173ffffffffffffffffffffffffffffffffffffffff021916908373ffffffffffffffffffffffffffffffffffffffff16021790555060408201518160020160006101000a81548173ffffffffffffffffffffffffffffffffffffffff021916908373ffffffffffffffffffffffffffffffffffffffff16021790555060608201518160020160146101000a81548160ff02191690836002811115620009b757fe5b021790555060808201518160030155505050600181908060018154018082558091505090600182039060005260206000209060040201600090919290919091506000820151816000015560208201518160010160006101000a81548173ffffffffffffffffffffffffffffffffffffffff021916908373ffffffffffffffffffffffffffffffffffffffff16021790555060408201518160020160006101000a81548173ffffffffffffffffffffffffffffffffffffffff021916908373ffffffffffffffffffffffffffffffffffffffff16021790555060608201518160020160146101000a81548160ff0219169083600281111562000ab457fe5b02179055506080820151816003015550505062000ad06200180e565b6040518060a00160405280600481526020018673ffffffffffffffffffffffffffffffffffffffff1681526020018873ffffffffffffffffffffffffffffffffffffffff1681526020016001600281111562000b2857fe5b8152602001601e8152509050600260008673ffffffffffffffffffffffffffffffffffffffff1673ffffffffffffffffffffffffffffffffffffffff16815260200190815260200160002081908060018154018082558091505090600182039060005260206000209060040201600090919290919091506000820151816000015560208201518160010160006101000a81548173ffffffffffffffffffffffffffffffffffffffff021916908373ffffffffffffffffffffffffffffffffffffffff16021790555060408201518160020160006101000a81548173ffffffffffffffffffffffffffffffffffffffff021916908373ffffffffffffffffffffffffffffffffffffffff16021790555060608201518160020160146101000a81548160ff0219169083600281111562000c5c57fe5b021790555060808201518160030155505050600181908060018154018082558091505090600182039060005260206000209060040201600090919290919091506000820151816000015560208201518160010160006101000a81548173ffffffffffffffffffffffffffffffffffffffff021916908373ffffffffffffffffffffffffffffffffffffffff16021790555060408201518160020160006101000a81548173ffffffffffffffffffffffffffffffffffffffff021916908373ffffffffffffffffffffffffffffffffffffffff16021790555060608201518160020160146101000a81548160ff0219169083600281111562000d5957fe5b02179055506080820151816003015550505062000d756200180e565b6040518060a00160405280600581526020018773ffffffffffffffffffffffffffffffffffffffff1681526020018773ffffffffffffffffffffffffffffffffffffffff1681526020016000600281111562000dcd57fe5b815260200160288152509050600260008773ffffffffffffffffffffffffffffffffffffffff1673ffffffffffffffffffffffffffffffffffffffff16815260200190815260200160002081908060018154018082558091505090600182039060005260206000209060040201600090919290919091506000820151816000015560208201518160010160006101000a81548173ffffffffffffffffffffffffffffffffffffffff021916908373ffffffffffffffffffffffffffffffffffffffff16021790555060408201518160020160006101000a81548173ffffffffffffffffffffffffffffffffffffffff021916908373ffffffffffffffffffffffffffffffffffffffff16021790555060608201518160020160146101000a81548160ff0219169083600281111562000f0157fe5b021790555060808201518160030155505050600181908060018154018082558091505090600182039060005260206000209060040201600090919290919091506000820151816000015560208201518160010160006101000a81548173ffffffffffffffffffffffffffffffffffffffff021916908373ffffffffffffffffffffffffffffffffffffffff16021790555060408201518160020160006101000a81548173ffffffffffffffffffffffffffffffffffffffff021916908373ffffffffffffffffffffffffffffffffffffffff16021790555060608201518160020160146101000a81548160ff0219169083600281111562000ffe57fe5b0217905550608082015181600301555050506200101a6200180e565b6040518060a00160405280600681526020018973ffffffffffffffffffffffffffffffffffffffff1681526020018973ffffffffffffffffffffffffffffffffffffffff168152602001600060028111156200107257fe5b8152602001600a8152509050600260008973ffffffffffffffffffffffffffffffffffffffff1673ffffffffffffffffffffffffffffffffffffffff16815260200190815260200160002081908060018154018082558091505090600182039060005260206000209060040201600090919290919091506000820151816000015560208201518160010160006101000a81548173ffffffffffffffffffffffffffffffffffffffff021916908373ffffffffffffffffffffffffffffffffffffffff16021790555060408201518160020160006101000a81548173ffffffffffffffffffffffffffffffffffffffff021916908373ffffffffffffffffffffffffffffffffffffffff16021790555060608201518160020160146101000a81548160ff02191690836002811115620011a657fe5b021790555060808201518160030155505050600181908060018154018082558091505090600182039060005260206000209060040201600090919290919091506000820151816000015560208201518160010160006101000a81548173ffffffffffffffffffffffffffffffffffffffff021916908373ffffffffffffffffffffffffffffffffffffffff16021790555060408201518160020160006101000a81548173ffffffffffffffffffffffffffffffffffffffff021916908373ffffffffffffffffffffffffffffffffffffffff16021790555060608201518160020160146101000a81548160ff02191690836002811115620012a357fe5b021790555060808201518160030155505050620012bf6200180e565b6040518060a00160405280600781526020018b73ffffffffffffffffffffffffffffffffffffffff1681526020018a73ffffffffffffffffffffffffffffffffffffffff168152602001600160028111156200131757fe5b8152602001626acfc08152509050600260008b73ffffffffffffffffffffffffffffffffffffffff1673ffffffffffffffffffffffffffffffffffffffff16815260200190815260200160002081908060018154018082558091505090600182039060005260206000209060040201600090919290919091506000820151816000015560208201518160010160006101000a81548173ffffffffffffffffffffffffffffffffffffffff021916908373ffffffffffffffffffffffffffffffffffffffff16021790555060408201518160020160006101000a81548173ffffffffffffffffffffffffffffffffffffffff021916908373ffffffffffffffffffffffffffffffffffffffff16021790555060608201518160020160146101000a81548160ff021916908360028111156200144d57fe5b021790555060808201518160030155505050600181908060018154018082558091505090600182039060005260206000209060040201600090919290919091506000820151816000015560208201518160010160006101000a81548173ffffffffffffffffffffffffffffffffffffffff021916908373ffffffffffffffffffffffffffffffffffffffff16021790555060408201518160020160006101000a81548173ffffffffffffffffffffffffffffffffffffffff021916908373ffffffffffffffffffffffffffffffffffffffff16021790555060608201518160020160146101000a81548160ff021916908360028111156200154a57fe5b021790555060808201518160030155505050620015666200180e565b6040518060a00160405280600881526020018a73ffffffffffffffffffffffffffffffffffffffff1681526020018c73ffffffffffffffffffffffffffffffffffffffff16815260200160016002811115620015be57fe5b815260200160328152509050600260008a73ffffffffffffffffffffffffffffffffffffffff1673ffffffffffffffffffffffffffffffffffffffff16815260200190815260200160002081908060018154018082558091505090600182039060005260206000209060040201600090919290919091506000820151816000015560208201518160010160006101000a81548173ffffffffffffffffffffffffffffffffffffffff021916908373ffffffffffffffffffffffffffffffffffffffff16021790555060408201518160020160006101000a81548173ffffffffffffffffffffffffffffffffffffffff021916908373ffffffffffffffffffffffffffffffffffffffff16021790555060608201518160020160146101000a81548160ff02191690836002811115620016f257fe5b021790555060808201518160030155505050600181908060018154018082558091505090600182039060005260206000209060040201600090919290919091506000820151816000015560208201518160010160006101000a81548173ffffffffffffffffffffffffffffffffffffffff021916908373ffffffffffffffffffffffffffffffffffffffff16021790555060408201518160020160006101000a81548173ffffffffffffffffffffffffffffffffffffffff021916908373ffffffffffffffffffffffffffffffffffffffff16021790555060608201518160020160146101000a81548160ff02191690836002811115620017ef57fe5b0217905550608082015181600301555050505050505050505050505050565b6040518060a0016040528060008152602001600073ffffffffffffffffffffffffffffffffffffffff168152602001600073ffffffffffffffffffffffffffffffffffffffff168152602001600060028111156200186857fe5b8152602001600081525090565b610bd980620018856000396000f3fe6080604052600436106100345760003560e01c80630c0b669114610039578063361fd87a146100ed578063d96a094a1461026b575b600080fd5b34801561004557600080fd5b5061004e610299565b604051808060200180602001838103835285818151815260200191508051906020019060200280838360005b8381101561009557808201518184015260208101905061007a565b50505050905001838103825284818151815260200191508051906020019060200280838360005b838110156100d75780820151818401526020810190506100bc565b5050505090500194505050505060405180910390f35b3480156100f957600080fd5b5061013c6004803603602081101561011057600080fd5b81019080803573ffffffffffffffffffffffffffffffffffffffff169060200190929190505050610434565b6040518080602001806020018060200180602001858103855289818151815260200191508051906020019060200280838360005b8381101561018b578082015181840152602081019050610170565b50505050905001858103845288818151815260200191508051906020019060200280838360005b838110156101cd5780820151818401526020810190506101b2565b50505050905001858103835287818151815260200191508051906020019060200280838360005b8381101561020f5780820151818401526020810190506101f4565b50505050905001858103825286818151815260200191508051906020019060200280838360005b83811015610251578082015181840152602081019050610236565b505050509050019850505050505050505060405180910390f35b6102976004803603602081101561028157600080fd5b81019080803590602001909291905050506107b8565b005b60608060606000805490506040519080825280602002602001820160405280156102d25781602001602082028038833980820191505090505b509050606060008054905060405190808252806020026020018201604052801561030b5781602001602082028038833980820191505090505b50905060008090505b60008054905081101561042757610329610b0b565b6000828154811061033657fe5b9060005260206000209060020201604051806040016040529081600082015481526020016001820160009054906101000a900473ffffffffffffffffffffffffffffffffffffffff1673ffffffffffffffffffffffffffffffffffffffff1673ffffffffffffffffffffffffffffffffffffffff1681525050905080602001518483815181106103c257fe5b602002602001019073ffffffffffffffffffffffffffffffffffffffff16908173ffffffffffffffffffffffffffffffffffffffff1681525050806000015183838151811061040d57fe5b602002602001018181525050508080600101915050610314565b5081819350935050509091565b6060806060806060600260008773ffffffffffffffffffffffffffffffffffffffff1673ffffffffffffffffffffffffffffffffffffffff168152602001908152602001600020805480602002602001604051908101604052809291908181526020016000905b828210156105ba57838290600052602060002090600402016040518060a0016040529081600082015481526020016001820160009054906101000a900473ffffffffffffffffffffffffffffffffffffffff1673ffffffffffffffffffffffffffffffffffffffff1673ffffffffffffffffffffffffffffffffffffffff1681526020016002820160009054906101000a900473ffffffffffffffffffffffffffffffffffffffff1673ffffffffffffffffffffffffffffffffffffffff1673ffffffffffffffffffffffffffffffffffffffff1681526020016002820160149054906101000a900460ff16600281111561059257fe5b600281111561059d57fe5b81526020016003820154815250508152602001906001019061049b565b505050509050606081516040519080825280602002602001820160405280156105f25781602001602082028038833980820191505090505b509050606082516040519080825280602002602001820160405280156106275781602001602082028038833980820191505090505b5090506060835160405190808252806020026020018201604052801561065c5781602001602082028038833980820191505090505b509050606084516040519080825280602002602001820160405280156106915781602001602082028038833980820191505090505b50905060008090505b855181101561079f576106ab610b3e565b8682815181106106b757fe5b6020026020010151905080600001518683815181106106d257fe5b60200260200101818152505080602001518583815181106106ef57fe5b602002602001019073ffffffffffffffffffffffffffffffffffffffff16908173ffffffffffffffffffffffffffffffffffffffff1681525050806040015184838151811061073a57fe5b602002602001019073ffffffffffffffffffffffffffffffffffffffff16908173ffffffffffffffffffffffffffffffffffffffff1681525050806080015183838151811061078557fe5b60200260200101818152505050808060010191505061069a565b5083838383985098509850985050505050509193509193565b6107c0610b3e565b6001808303815481106107cf57fe5b90600052602060002090600402016040518060a0016040529081600082015481526020016001820160009054906101000a900473ffffffffffffffffffffffffffffffffffffffff1673ffffffffffffffffffffffffffffffffffffffff1673ffffffffffffffffffffffffffffffffffffffff1681526020016002820160009054906101000a900473ffffffffffffffffffffffffffffffffffffffff1673ffffffffffffffffffffffffffffffffffffffff1673ffffffffffffffffffffffffffffffffffffffff1681526020016002820160149054906101000a900460ff1660028111156108bc57fe5b60028111156108c757fe5b815260200160038201548152505090503481608001511115610951576040517f08c379a00000000000000000000000000000000000000000000000000000000081526004018080602001828103825260188152602001807f496e73756666696369656e742066756e64732073656e742e000000000000000081525060200191505060405180910390fd5b6001600281111561095e57fe5b8160600151600281111561096e57fe5b146109e1576040517f08c379a000000000000000000000000000000000000000000000000000000000815260040180806020018281038252601e8152602001807f5061706572206973206e6f7420696e2074726164696e672073746174652e000081525060200191505060405180910390fd5b7fb18d0e703b28c469a9c2b18ffe81b5844261c6dc4afaed8b051d75174df5b0fb33826040015134604051808473ffffffffffffffffffffffffffffffffffffffff1673ffffffffffffffffffffffffffffffffffffffff1681526020018373ffffffffffffffffffffffffffffffffffffffff1673ffffffffffffffffffffffffffffffffffffffff168152602001828152602001935050505060405180910390a1806040015173ffffffffffffffffffffffffffffffffffffffff166108fc349081150290604051600060405180830381858888f19350505050158015610ace573d6000803e3d6000fd5b5033816040019073ffffffffffffffffffffffffffffffffffffffff16908173ffffffffffffffffffffffffffffffffffffffff16815250505050565b604051806040016040528060008019168152602001600073ffffffffffffffffffffffffffffffffffffffff1681525090565b6040518060a0016040528060008152602001600073ffffffffffffffffffffffffffffffffffffffff168152602001600073ffffffffffffffffffffffffffffffffffffffff16815260200160006002811115610b9757fe5b815260200160008152509056fea265627a7a723158207abb73f84457183d6539e05819403c6bf3c5eed03e48de26c20851b326bf0eaa64736f6c63430005100032",
  "source": "pragma solidity >=0.4.21 <0.7.0;\n\n\ncontract Investment {\n\n    struct Paper {\n        uint id;\n        address issuer;\n        address payable owner;\n        PaperState state;\n        uint price;\n    }\n\n    enum PaperState { Issued, Trading, Redeemed }\n\n    struct Company {\n        bytes32 name;\n        address addr;\n    }\n\n    Company[] companies;\n    Paper[] papers;\n    mapping (address => Paper[]) paperIssuedByCompany;\n\n\n    event TransactionOccured(address payable from, address payable to, uint value);\n\n    constructor() public {\n        initData();\n    }\n\n    function initData() private {\n        address appleAddress = 0xF661B71BeC9a6dAac0bd5E897c3d242dF18eDc11;\n        address googleAddress = 0x94FB29447e4b8FBA43e90eA46a2f51C2191f4Fea;\n        address facebookAddress = 0x21A4a0D1499A20D503969190C5D98E4Ab51ca4C4;\n\n        companies.push(Company({\n            name: \"Apple\",\n            addr: appleAddress\n        }));\n\n        companies.push(Company({\n            name: \"Google\",\n            addr: googleAddress\n        }));\n\n        companies.push(Company({\n            name: \"Facebook\",\n            addr: facebookAddress\n        }));\n\n        Paper memory paper1 = Paper({\n            id: 1,\n            issuer: appleAddress,\n            owner: address(uint160(appleAddress)),\n            state: PaperState.Issued,\n            price: 200\n        });\n        paperIssuedByCompany[appleAddress].push(paper1);\n        papers.push(paper1);\n\n        Paper memory paper2 = Paper({\n            id: 2,\n            issuer: appleAddress,\n            owner: address(uint160(googleAddress)),\n            state: PaperState.Trading,\n            price: 60\n        });\n        paperIssuedByCompany[appleAddress].push(paper2);\n        papers.push(paper2);\n\n        Paper memory paper3 = Paper({\n            id: 3,\n            issuer: googleAddress,\n            owner: address(uint160(appleAddress)),\n            state: PaperState.Trading,\n            price: 150\n        });\n        paperIssuedByCompany[googleAddress].push(paper3);\n        papers.push(paper3);\n\n        Paper memory paper4 = Paper({\n            id: 4,\n            issuer: facebookAddress,\n            owner: address(uint160(appleAddress)),\n            state: PaperState.Trading,\n            price: 30\n        });\n        paperIssuedByCompany[facebookAddress].push(paper4);\n        papers.push(paper4);\n\n        Paper memory paper5 = Paper({\n            id: 5,\n            issuer: facebookAddress,\n            owner: address(uint160(facebookAddress)),\n            state: PaperState.Issued,\n            price: 40\n        });\n        paperIssuedByCompany[facebookAddress].push(paper5);\n        papers.push(paper5);\n\n        Paper memory paper6 = Paper({\n            id: 6,\n            issuer: googleAddress,\n            owner: address(uint160(googleAddress)),\n            state: PaperState.Issued,\n            price: 10\n        });\n        paperIssuedByCompany[googleAddress].push(paper6);\n        papers.push(paper6);\n\n        Paper memory paper7 = Paper({\n            id: 7,\n            issuer: appleAddress,\n            owner: address(uint160(googleAddress)),\n            state: PaperState.Trading,\n            price: 7000000\n        });\n        paperIssuedByCompany[appleAddress].push(paper7);\n        papers.push(paper7);\n\n        Paper memory paper8 = Paper({\n            id: 8,\n            issuer: facebookAddress,\n            owner: address(uint160(appleAddress)),\n            state: PaperState.Trading,\n            price: 50\n        });\n        paperIssuedByCompany[facebookAddress].push(paper8);\n        papers.push(paper8);\n    }\n\n\n    function getCompanies() public view returns (address[] memory, bytes32[] memory) {\n        address[] memory companyAddresses = new address[](companies.length);\n        bytes32[] memory companyNames = new bytes32[](companies.length);\n        for (uint i = 0; i < companies.length; i++) {\n            Company memory company = companies[i];\n            companyAddresses[i] = company.addr;\n            companyNames[i] = company.name;\n        }\n        return (companyAddresses, companyNames);\n    }\n\n    function getPapers(address owner) public view returns (uint[] memory, address[] memory, address[] memory, uint[] memory) {\n        Paper[] memory paperOfCompany = paperIssuedByCompany[owner];\n        uint[] memory ids = new uint[](paperOfCompany.length);\n        address[] memory issuerAddr = new address[](paperOfCompany.length);\n        address[] memory ownerAddr = new address[](paperOfCompany.length);\n        uint[] memory prices = new uint[](paperOfCompany.length);\n\n        for (uint i = 0; i < paperOfCompany.length; i++) {\n            Paper memory p = paperOfCompany[i];\n            ids[i] = p.id;\n            issuerAddr[i] = p.issuer;\n            ownerAddr[i] = p.owner;\n            prices[i] = p.price;\n        }\n\n        return (ids, issuerAddr, ownerAddr, prices);\n    }\n\n    function buy(uint paperId) public payable {\n        Paper memory paper = papers[paperId - 1];\n\n        if(paper.price > msg.value) {\n            revert(\"Insufficient funds sent.\");\n        }\n\n        if(paper.state != PaperState.Trading) {\n            revert(\"Paper is not in trading state.\");\n        }\n\n        emit TransactionOccured(msg.sender, paper.owner, msg.value);\n        paper.owner.transfer(msg.value);    // jak dam msg.sender.transfer() to działa \n        paper.owner = address(uint160(msg.sender));\n    }\n}",
  "sourcePath": "/home/eth/ethereum/contracts/Investment.sol",
  "compiler": {
    "name": "solc",
    "version": "0.5.16+commit.9c3226ce.Emscripten.clang"
  },
  "schemaVersion": "3.0.23",
  "updatedAt": "2020-02-29T01:31:54.712Z",
  "networkType": "ethereum",
  "devdoc": {
    "methods": {}
  },
  "userdoc": {
    "methods": {}
  }
}